:100000000A128A11E12F00308A000408840A82074C
:10001000003457344F3452344C3444342E3400348A
:0E002000483445344C344C344F342E340034C4
:100482007934793464008001840A04060319003443
:100492000406442A83120313881008107808870080
:1004A2000A128A11C82208000A128A11C82283126B
:1004B20003130708FA00FB017A08A4007B08A500D1
:1004C2002508F9002408F80008000A128A11B62348
:1004D2000A128A11831603138701831203138701F9
:1004E200881008107C0887000A128A11C8220800A6
:1004F200FC000A128A11B6230A128A118316031308
:100502008701831203138701881008147C0887006F
:100512000A128A11C8220800F6007608F40074084C
:10052200F5000130F2020030031CF303F302720AF9
:100532000319730A031908007008F400750884008F
:100542007408831380000130F4007408F507922ABE
:100552008312031308110030F3000030F20003305D
:10056200F100E830F0000A128A1108230A128A11F7
:100572008312031308150030F3000030F200033039
:10058200F100E830F0000A128A11082308008312F1
:10059200031308150030F3000030F2000330F100BD
:1005A200E830F0000A128A1108230A128A11831213
:1005B200031308110030F3000030F2000330F100A1
:1005C200E830F0000A128A1108230800F82A803065
:1005D200FC000030FD000A128A1166220800C030B9
:1005E200FC000030FD000A128A1166220800831204
:1005F20003134708003A0319FF2A072B4608013A5A
:100602000319E82A033A0319F02A072B08000130DC
:10061200F4000030F5000030F6000030F7007408F6
:10062200F0027508031C750F172B182BF1027608C0
:10063200031C760F1D2B1E2BF2027708031C770F6B
:10064200232B242BF302700A031D082B710A031DAE
:10065200082B720A031D082B730A03190800082BC2
:10066200F7007708F2007208F600760884000A1292
:100672008A1103200A128A11003A0319452B01300C
:10068200F2007208F607362B7708F2008030F3008A
:10069200F209F309F20A0319F30A7608F40080302A
:1006A200F50072087407F00073080318730A7507DF
:1006B200F100080083120313CD004B08C7004A085B
:1006C200C6000A128A11E7220A128A118312031340
:1006D200CE01CF0149084F02031D712B48084E027B
:1006E200031808004E084D07CC004C088400831301
:1006F20000080A128A1179220A128A110130831221
:100702000313CE070318CF0A0030CF076B2BF70075
:100712007008F3007308F6007708F3007308F50019
:100722000130F1020030031CF203F202710A0319D4
:10073200720A03190800760884000A128A1103203B
:100742000A128A11F3007308F4000130F3007308EF
:10075200F6077408F3007508840073088313800099
:100762000130F3007308F507912BFF308316031352
:100772008700831203138701881408100A128A1152
:1007820055220A128A11790883120313A5007808E8
:10079200A400A41F08000A128A11A9220A128A11AF
:1007A2000A128A11A9220A128A118312031308114A
:1007B2000030F3000030F2000330F100E830F000C6
:1007C2000A128A1108230A128A11BF2B0030F30081
:1007D2000030F2003A30F1009830F0000A128A112B
:1007E20008230A128A113030F8000030F9000A1288
:1007F2008A114B220A128A110030F3000030F200F3
:100802001030F1000430F0000A128A1108230A1293
:100812008A113030F8000030F9000A128A114B2296
:100822000A128A110030F3000030F2000030F100A9
:100832006430F0000A128A1108230A128A11303039
:10084200F8000030F9000A128A114B220A128A11AA
:100852003830FC000030FD000A128A1166220A12AA
:100862008A110130FC000030FD000A128A11662252
:100872000A128A110C30FC000030FD000A128A11A3
:1008820066220A128A110630FC000030FD000A12AC
:100892008A11662208008316031387018312031349
:1008A20087018316031388018312031388010A1236
:1008B2008A11E7230A128A110030F000F100103089
:1008C200F2000030F30036300A128A118D220A1229
:1008D2008A110030F000F1001030F2000030F30015
:1008E20026300A128A118D220A128A1108300A123F
:1008F2008A1131230A128A11710883120313E1004B
:100902007008E00001300A128A1131230A128A119A
:10091200710883120313E3007008E20083120313C9
:100922006108D1006008D0000230D2000030D3004C
:100932000030D400D50008300A128A11B7240A12F6
:100942008A11831203136308D1006208D0000230B7
:10095200D2000030D3000130D4000030D500013085
:100962000A128A114C260A128A118F2C831203133F
:10097200DB0079306506031D3E2E5B08D600560863
:10098200F0005108F2005008F100BE300A128A113C
:1009920088230A128A1183120313A201A3016E3063
:1009A200D6005608E5003E2E52085007D6005308DE
:1009B2000318530A5107D7002308803AD800570872
:1009C200803A5802031DE72C560822020318A02D74
:1009D200103083120313C8000030C9000130CA006E
:1009E2000030CB0036300A128A115B230A128A11B8
:1009F20083120313DE01DF015F08803AFF008030BB
:100A02007F02031D062D10305E020318382D0F30B1
:100A1200831203135E065F0403191B2D5E08013E59
:100A2200363E840083130008D6005E08363E8400FA
:100A32005608262D831603133E0883120313D6008D
:100A42005E08363E84005608831380000130DE07BC
:100A52000318DF0A0030DF075F08803AFF008030AA
:100A62007F02031D362D10305E02031C082D8312F7
:100A72000313DC01DD012209D6002309D700D60ABF
:100A82000319D70A50085607D80051080318510A0B
:100A92005707D9005D08803ADA005908803A5A02AD
:100AA200031D552D58085C020318972D831203135A
:100AB2002208013ED60023080318013E003ED7005B
:100AC200D609D709D60A0319D70A50085607D800FB
:100AD20051080318510A5707D9005D08803ADA0015
:100AE2005908803A5A02031D782D58085C020318EF
:100AF200892D831203135C08013EBE3E84008313DA
:100B02000008D6005C08BE3E840056088000902D86
:100B1200831203135C08BE3E8400831380010130FC
:100B2200DC070318DD0A0030DD073C2D013083129B
:100B32000313A2070318A30A0030A30708007930A1
:100B420083120313D6005608E50008005208500726
:100B5200D60053080318530A5107D7002308803AD6
:100B6200D8005708803A5802031DB92D56082202B0
:100B72000318372E103083120313C8000030C90047
:100B82000130CA000030CB0036300A128A115B23D2
:100B92000A128A110F3083120313DE000030DF00C5
:100BA200DF1BEF2D5E085F040319DB2D5E08FF3E9D
:100BB200363EDE2D5008FF3EBE3E84008313000801
:100BC200D6005E08363E840056088000FF30DE07FD
:100BD2000318DF0AFF30DF07DF1FD32D5008FF3E67
:100BE200DC0051080318013EFF3EDD005D08803A3B
:100BF200D6002308803A5602031D012E22085C0209
:100C0200031C2E2E831203132308803AD6005D089C
:100C1200803A5602031D0F2E5C0822020318202E72
:100C2200831203135C08FF3EBE3E84008313000858
:100C3200D6005C08BE3E840056088000272E831230
:100C420003135C08BE3E840083138001FF30DC077F
:100C52000318DD0AFF30DD07F72D0130831203137D
:100C6200A2070318A30A0030A307080079308312F1
:100C72000313D6005608E50008005508003A031988
:100C8200432E4B2E5408003A0319D52C013A03196E
:100C9200A72D4B2E080083120313DB007930640664
:100CA200031DD32F5B08D6005608F0005108F2004E
:100CB2005008F100A0300A128A1188230A128A1100
:100CC20083120313A001A1016E30D6005608E4007E
:100CD200D32F52085007D60053080318530A51075E
:100CE200D7002108803AD8005708803A5802031DDD
:100CF2007C2E560820020318352F1030831203135E
:100D0200C8000030C9000230CA000030CB002630D3
:100D12000A128A115B230A128A1183120313DE015B
:100D2200DF015F08803AFF0080307F02031D9B2EA7
:100D320010305E020318CD2E0F30831203135E06AD
:100D42005F040319B02E5E08013E263E8400831321
:100D52000008D6005E08263E84005608BB2E831685
:100D62000313200883120313D6005E08263E840074
:100D72005608831380000130DE070318DF0A0030B3
:100D8200DF075F08803AFF0080307F02031DCB2E11
:100D920010305E02031C9D2E83120313DC01DD0161
:100DA2002009D6002109D700D60A0319D70A50080C
:100DB2005607D80051080318510A5707D9005D0891
:100DC200803ADA005908803A5A02031DEA2E58087E
:100DD2005C0203182C2F831203132008013ED60055
:100DE20021080318013E003ED700D609D709D60ACA
:100DF2000319D70A50085607D80051080318510A98
:100E02005707D9005D08803ADA005908803A5A0239
:100E1200031D0D2F58085C0203181E2F83120313A3
:100E22005C08013EA03E840083130008D6005C08E3
:100E3200A03E840056088000252F831203135C080D
:100E4200A03E8400831380010130DC070318DD0A11
:100E52000030DD07D12E013083120313A0070318DF
:100E6200A10A0030A1070800793083120313D600CB
:100E72005608E400080052085007D6005308031829
:100E8200530A5107D7002108803AD8005708803A00
:100E92005802031D4E2F560820020318CC2F103083
:100EA20083120313C8000030C9000230CA000030A8
:100EB200CB0026300A128A115B230A128A110F30E4
:100EC20083120313DE000030DF00DF1B842F5E0875
:100ED2005F040319702F5E08FF3E263E732F5008F1
:100EE200FF3EA03E840083130008D6005E08263E23
:100EF200840056088000FF30DE070318DF0AFF3047
:100F0200DF07DF1F682F5008FF3EDC00510803187F
:100F1200013EFF3EDD005D08803AD6002108803A9E
:100F22005602031D962F20085C02031CC32F831256
:100F320003132108803AD6005D08803A5602031D49
:100F4200A42F5C0820020318B52F831203135C0838
:100F5200FF3EA03E840083130008D6005C08A03E3A
:100F6200840056088000BC2F831203135C08A03E45
:100F7200840083138001FF30DC070318DD0AFF3091
:100F8200DD078C2F013083120313A0070318A10A77
:100F92000030A1070800793083120313D6005608E7
:100FA200E40008005508003A0319D82FE02F54082E
:100FB200003A03196A2E013A03193C2FE02F080068
:100FC2000A128A1141220A128A11E4000A128A11B3
:100FD20042220A128A11E5008313A0308400DC3019
:100FE2000A128A1143220A128A11203084004630E2
:0E0FF2000A128A11432283010A128A114C2C22
:00000001FF
